:1000000045C0000060C000005EC00000BAC1000032
:1000100010C2000058C0000056C0000054C00000CC
:1000200052C0000050C000004EC000004CC0000094
:100030004AC0000048C0000046C0000044C00000A4
:1000400042C0000040C000003EC000003CC00000B4
:100050003AC0000038C0000036C0000034C00000C4
:1000600032C0000030C000002EC000002CC00000D4
:100070002AC0000028C0000026C0000024C00000E4
:1000800022C0000020C000001EC0000011241FBEBE
:10009000CFEFD0E1DEBFCDBF11E0A0E0B1E0E4E200
:1000A000FAE000E00BBF02C007900D92A635B10741
:1000B000D9F721E0A6E5B1E001C01D92A036B20754
:1000C000E1F717D3ADC49CCF1092710080E280930A
:1000D0007000089584EA80937400E4E7F0E0808182
:1000E0008823ECF708958093730084E8809374006C
:1000F000E4E7F0E080818823ECF708950F931F93E5
:10010000CF93DF938C01E6DF80EEEDDF80E0EBDF65
:10011000E801085F1F4F899180FB879587F9E3DF2E
:1001200080E0E1DFC017D107B1F784E98093740064
:10013000DF91CF911F910F9108950F931F93CF934C
:10014000DF93082FC7DF802FCEDF81E2CCDFC4E74B
:10015000D0E014E91883BEDF802FC5DF80EAC3DF5B
:100160001883B8DF802FBFDF81EEBDDF1883B2DFD9
:10017000802FB9DF81E8B7DF1883DF91CF911F911E
:100180000F910895A1DF80EED8CF089518161906B3
:100190006CF420E030E0E9EFF0E03197F1F700C0D7
:1001A00000002F5F3F4F82179307A9F708958F92A2
:1001B0009F92AF92BF92CF92DF92EF92FF920F93F6
:1001C0001F93CF93DF93982E990C0197882E880C5C
:1001D00000E010E0C0E06894AA24A7F8B12C0F2E2C
:1001E000F4E7CF2ED12CF02DD4E974DF80EE7BDF45
:1001F000892D79DF8C2F809580FB879587F973DFB8
:100200007501002E02C0F594E7940A94E2F7CE2916
:10021000F601D0835FDF80EE66DF882D64DF8C2FF0
:10022000809580FB879587F95EDFCE29F601D08324
:100230008DE491E0ABDF0F5F1F4F09301105A9F688
:10024000DF91CF911F910F91FF90EF90DF90CF90B2
:10025000BF90AF909F908F9008957F928F929F92C2
:10026000AF92BF92CF92DF92EF92FF920F931F93C4
:10027000CF93DF9304E011E04C0140E050E00F2EFB
:10028000FAE5AF2EF1E0BF2EF02D6894CC24C7F82C
:10029000D12CF8017780F50160817181DB01119724
:1002A000C281D3817E01FFEFEF1AFF0A085F1F4F63
:1002B000F80120E030E06417750719F0A417B507BE
:1002C00071F4C217D30719F0E216F30641F4C60120
:1002D000022E02C0959587950A94E2F7782A8291BA
:1002E00090E0022E02C0880F991F0A94E2F7782A44
:1002F0002F5F3F4F28303105F1F6F40171924F0125
:100300004F5F5F4F4830510521F6DF91CF911F912C
:100310000F91FF90EF90DF90CF90BF90AF909F90A4
:100320008F907F900895CF93DF93CDB7DEB760971E
:100330000FB6F894DEBF0FBECDBF80E090E068D26C
:1003400084E091E064E471E030E1AE014F5F5F4F23
:10035000FA01232F11922A95E9F728E0FA01DC012E
:1003600001900D922A95E1F708968617970781F775
:1003700060960FB6F894DEBF0FBECDBFDF91CF9170
:1003800008951F920F920FB60F9211240BB60F9281
:100390002F933F934F935F936F937F938F939F938D
:1003A000AF93BF93EF93FF9380B38C708C3011F4B5
:1003B000BADF2CC080915C0190915D01181619067E
:1003C0002CF520915A0130915B010197F901EE0F54
:1003D000FF1FEE0FFF1FEE0FFF1FEC5FFE4FE80F3A
:1003E000F91F4081411112C0F901EE0FFF1FEE0FFE
:1003F000FF1FEE0FFF1FE450FF4FE80FF91F208192
:10040000211104C090935D0180935C01FF91EF91F5
:10041000BF91AF919F918F917F916F915F914F911C
:100420003F912F910F900BBE0F900FBE0F901F901A
:1004300018951F920F920FB60F9211240BB60F92C0
:100440002F933F934F935F936F937F938F939F93DC
:10045000AF93BF93EF93FF9380B38C708C3011F404
:1004600062DF2FC080915C0190915D018630910523
:1004700044F520915A0130915B01AC014E5F5F4F12
:10048000F901EE0FFF1FEE0FFF1FEE0FFF1FEC5FD6
:10049000FE4FE40FF51F6081611113C0220F331F5F
:1004A000220F331F220F331F24503F4FF901E40F57
:1004B000F51F2081211105C0019690935D01809365
:1004C0005C01FF91EF91BF91AF919F918F917F91CF
:1004D0006F915F914F913F912F910F900BBE0F90B5
:1004E0000FBE0F901F90189510925901109258014D
:1004F0009C0122503109FAF0880F991F880F991F2B
:10050000880F991F8C5F9E4FAC014051510968E0E4
:10051000FA01DC0101900D926A95E1F7DC01189770
:10052000FC01789788E001900D928A95E1F72250BE
:100530003109CA014AF70895EF92FF920F931F9372
:10054000CF93DF93E4E0F1E000E010E0E12CF12C48
:100550001DC09191913039F4DF0119979C91913030
:1005600011F42F5F3F4FEC17FD0799F72830310545
:1005700039F48AE0E80EF11CC80119DEC801B4DFC5
:100580000F5F1F4FFE010830110529F0EF0128967B
:1005900020E030E0DECF80915601909157018E0D22
:1005A0009F1D909357018093560132D1DF91CF91D7
:1005B0001F910F91FF90EF9008950F931F93CF938A
:1005C000DF93CDB7DEB728970FB6F894DEBF0FBE26
:1005D000CDBF0AE511E0CE0101963FDECE010196C6
:1005E0008DDD80ED97E0D2DDF80140815181CA01B7
:1005F000019622813381FC01EE0FFF1FEE0FFF1FDA
:10060000EE0FFF1FEC5FFE4FE20FF31F60816130C2
:1006100091F0FC01EE0FFF1FEE0FFF1FEE0FFF1F0B
:10062000EC5FFE4FE20FF31F6181613021F0F801B2
:1006300091838083D0CFCA01880F991F880F991F9B
:10064000880F991F8C5F9E4FFC01E20FF31F61E042
:100650006083440F551F440F551F440F551F4450CE
:100660005F4FFA01E20FF31F60832F5F3F4FFC01E2
:10067000E20FF31F6083FA01E20FF31F6083109211
:100680005F0110925E0158DF28960FB6F894DEBF26
:100690000FBECDBFDF91CF911F910F91089581E0E3
:1006A00090E090935F0180935E018091580190915A
:1006B0005901FC01EC5FFE4F2081213071F0FC01FB
:1006C000EC5FFE4F2181213041F0EAE5F1E011823B
:1006D00010829383828371DF03C08FE097E298D00A
:1006E00034D167E070E0C3D09093590180935801F2
:1006F00008958CE081BBEAE6F0E08081806F808322
:1007000089B78C6089BF789488E299E021D13ADD7D
:10071000A9D080915601909157017AD084EF91E051
:1007200035DDCAE5D1E08C819D810097F1F7B7DF17
:1007300084EF91E02BDDF7CF181619065CF420E06A
:1007400030E042E04A95F1F700C02F5F3F4F82173B
:100750009307B9F708951F93CF93DF93182FC8E03D
:10076000D0E0C19882E390E0E7DF10FF02C0C09ABA
:1007700001C0C098C19A82E390E0DEDF1695219710
:1007800081F7C198B898C09A82E390E0D5DF86B32C
:10079000B89AC09882E390E0CFDFC19A82E390E0FC
:1007A000CBDFC198889ADF91CF911F910895C09AAD
:1007B000C19A82E390E0C0DFC0980895C19882E3B7
:1007C00090E0BADFC09882E390E0B6DFC19A82E39E
:1007D00090E0B2DFC09A0895CF93C82FE8DF8C2F46
:1007E000BADFECDFCF9108958BE8F6CF0895CF9371
:1007F000DF93D82FC62F84E4EFDFD9DF8D2F806CF5
:10080000AADF8C2FA8DFDADFEFDFDF91CF91089529
:10081000FF920F931F93CF93DF93C3E00AE010E0A2
:10082000B80125D0F62ED72FFC01FF27E45BFE4F41
:1008300060818C2FDCDF8F2D9D2FC15088F7DF91D9
:10084000CF911F910F91FF90089560E080E0CFDF7E
:1008500060E081E0CCDF60E082E0C9DF60E083E05F
:10086000C6CF089583E087BB18BAEFCF089597FBF2
:10087000072E16F4009406D077FD08D00BD007FCA5
:1008800005D03EF4909581959F4F089570956195A0
:100890007F4F0895AA1BBB1B51E107C0AA1FBB1FB6
:1008A000A617B70710F0A61BB70B881F991F5A95FC
:1008B000A9F780959095BC01CD0108958F929F92E4
:1008C000AF92BF92CF92DF92EF92FF92CF93DF93DE
:1008D000EC01688179818A819B81611571058105AF
:1008E000910521F464E279ED8BE597E02DE133EF9A
:1008F00041E050E038D049015A019B01AC01A7EA20
:10090000B1E44DD06B017C01ACEEB4EFA5019401D4
:1009100052D0DC01CB018C0D9D1DAE1DBF1DB7FF5C
:1009200003C00197A109B04888839983AA83BB8338
:100930009F77DF91CF91FF90EF90DF90CF90BF90A6
:10094000AF909F908F900895B9CF80E091E0B6CF9F
:10095000A0E0B0E08093000190930101A093020118
:10096000B09303010895052E97FB16F400940FD061
:1009700057FD05D024D007FC02D046F408C050959E
:100980004095309521953F4F4F4F5F4F089590957B
:100990008095709561957F4F8F4F9F4F089531D00F
:1009A000A59F900DB49F900DA49F800D911D1124C3
:1009B0000895B7FFF4CFF3DF821B930B0895A1E2F4
:1009C0001A2EAA1BBB1BFD010DC0AA1FBB1FEE1FC9
:1009D000FF1FA217B307E407F50720F0A21BB30B14
:1009E000E40BF50B661F771F881F991F1A9469F790
:1009F00060957095809590959B01AC01BD01CF01EC
:100A00000895A29FB001B39FC001A39F700D811DE7
:100A10001124911DB29F700D811D1124911D089507
:040A2000F894FFCF78
:100A240001000000000000000000000000000000C1
:100A340000000000000000000000000000000000B2
:100A440000000000000000000000000000000000A2
:100A54000000000000000000000000000000000092
:100A64000000000001010101010101013F065B4F8B
:060A7400666D7D077F6F37
:00000001FF
