:1000000045C0000060C000005EC000005CC0000091
:100010005AC0000058C0000056C0000054C0000084
:1000200052C0000050C000004EC000004CC0000094
:100030004AC0000048C0000046C0000044C00000A4
:1000400042C0000040C000003EC000003CC00000B4
:100050003AC0000038C0000036C0000034C00000C4
:1000600032C0000030C000002EC000002CC00000D4
:100070002AC0000028C0000026C0000024C00000E4
:1000800022C0000020C000001EC0000011241FBEBE
:10009000CFEFD0E1DEBFCDBF11E0A0E0B1E0EAE9F3
:1000A000F3E000E00BBF02C007900D92A834B10747
:1000B000D9F721E0A8E4B1E001C01D92AE34B20747
:1000C000E1F759D168C19CCF1092710080E2809312
:1000D0007000089584EA80937400E4E7F0E0808182
:1000E0008823ECF708958093730084E8809374006C
:1000F000E4E7F0E080818823ECF708950F931F93E5
:10010000CF93DF938C01E6DF80EEEDDF80E0EBDF65
:10011000E801085F1F4F899180FB879587F9E3DF2E
:1001200080E0E1DFC017D107B1F784E98093740064
:10013000DF91CF911F910F9108950F931F93CF934C
:10014000DF93082FC7DF802FCEDF81E2CCDFC4E74B
:10015000D0E014E91883BEDF802FC5DF80EAC3DF5B
:100160001883B8DF802FBFDF81EEBDDF1883B2DFD9
:10017000802FB9DF81E8B7DF1883DF91CF911F911E
:100180000F910895A1DF80EED8CF089518161906B3
:100190006CF420E030E0E9EFF0E03197F1F700C0D7
:1001A00000002F5F3F4F82179307A9F708957F92B2
:1001B0008F929F92AF92BF92CF92DF92EF92FF9277
:1001C0000F931F93CF93DF9300E011E04C0140E0C9
:1001D00050E00F2EF8E4AF2EF1E0BF2EF02DCC242E
:1001E000C394D12CF8017780F50160817181DB0126
:1001F0001197C281D3817E01FFEFEF1AFF0A085FDA
:100200001F4FF80120E030E06417750719F0A417BC
:10021000B50771F4C217D30719F0E216F30641F4DB
:10022000C601022E02C0880F991F0A94E2F7782AAD
:10023000829190E0022E02C0880F991F0A94E2F783
:10024000782A2F5F3F4F28303105F1F6F401719283
:100250004F014F5F5F4F4830510521F6DF91CF913D
:100260001F910F91FF90EF90DF90CF90BF90AF90D4
:100270009F908F907F9008950F931F93CF93DF935C
:10028000CDB7DEB728970FB6F894DEBF0FBECDBF4F
:1002900008E411E0CE0101968ADFCE0101962EDF3F
:1002A00080ED97E073DFF80140815181CA0101962A
:1002B00022813381FC01EE0FFF1FEE0FFF1FEE0FB7
:1002C000FF1FE050FF4FE20FF31F6081662391F0A4
:1002D000FC01EE0FFF1FEE0FFF1FEE0FFF1FE20FDF
:1002E000F31FE150FF4F6081613021F0F8019183ED
:1002F0008083D0CFCA01880F991F880F991F880F5C
:10030000991F80509F4FFC01E20FF31F61E0608353
:10031000440F551F440F551F440F551F48505F4F42
:10032000FA01E20FF31F60832F5F3F4FFC01E20FE2
:10033000F31F6083FA01E20FF31F608310924D01F7
:1003400010924C0128960FB6F894DEBF0FBECDBFB9
:10035000DF91CF911F910F910895E8E4F1E081E0E2
:1003600090E09183808323E030E033832283958380
:10037000848382CF089506DFF0DF84EF91E006DF0B
:10038000C8E4D1E08C819D810097F1F7E6DF84EF2E
:0A03900091E0FCDEF7CFF894FFCFF8
:10039A000000000000000000000000000000000053
:1003AA000000000000000000000000000000000043
:1003BA000000000000000000000000000000000033
:1003CA000000000000000000000000000000000023
:0803DA00010101010101010113
:00000001FF
