:1000000045C0000060C000005EC000005CC0000091
:100010005AC0000058C0000056C0000054C0000084
:1000200052C0000050C000004EC000004CC0000094
:100030004AC0000048C0000046C0000044C00000A4
:1000400042C0000040C000003EC000003CC00000B4
:100050003AC0000038C0000036C0000034C00000C4
:1000600032C0000030C000002EC000002CC00000D4
:100070002AC0000028C0000026C0000024C00000E4
:1000800022C0000020C000001EC0000011241FBEBE
:10009000CFEFD0E1DEBFCDBF11E0A0E0B1E0EAE9F3
:1000A000F1E000E00BBF02C007900D92A430B10751
:1000B000D9F721E0A4E0B1E001C01D92A430B2075D
:1000C000E1F763D068C09CCF1092710080E280930A
:1000D0007000089584EA80937400E4E7F0E0808182
:1000E0008823ECF708958093730084E8809374006C
:1000F000E4E7F0E080818823ECF708950F931F93E5
:10010000CF93DF93082FE6DF802FEDDF81E2EBDF77
:10011000C4E7D0E014E91883DDDF802FE4DF80EA54
:10012000E2DF1883D7DF802FDEDF81EEDCDF18838C
:10013000D1DF802FD8DF81E8D6DF1883DF91CF9120
:100140001F910F910895C0DF80EED8CF0895181643
:1001500019066CF420E030E0E9EFF0E03197F1F7B8
:1001600000C000002F5F3F4F82179307A9F7089543
:1001700081E090E0909303018093020183E090E09E
:1001800090930101809300010895F2DFDCDF84EF9A
:0A01900091E0DDDFFFCFF894FFCF10
:04019A00030001005D
:00000001FF
