S0180000446F746D61747269785F5465747269732E7372656376
S113000045C0000053C0000051C000004FC00000B4
S11300104DC000004BC0000049C0000047C00000B4
S113002045C0000043C0000041C000003FC00000C4
S11300303DC000003BC0000039C0000037C00000D4
S113004035C0000033C0000031C000002FC00000E4
S11300502DC000002BC0000029C0000027C00000F4
S113006025C0000023C0000021C000001FC0000004
S11300701DC000001BC0000019C0000017C0000014
S113008015C0000013C0000011C0000011241FBEE1
S1130090CFEFD0E1DEBFCDBF21E0A0E0B1E001C0F1
S11300A01D92A030B207E1F76AD072C0A9CF0895BB
S11300B01092710080E280937000089584EA809326
S11300C07400E4E7F0E080818823ECF708958093DE
S11300D0730084E880937400E4E7F0E0808188236F
S11300E0ECF708950F931F93CF93DF93C82FE6DFA8
S11300F08C2FEDDF81E2EBDF04E710E0D4E9F801B7
S1130100D083DCDF8C2FE3DF80EAE1DFF801D083EA
S1130110D5DF8C2FDCDF81EEDADFF801D083CEDF90
S11301208C2FD5DF81E8D3DFF801D083C7DF8C2F94
S1130130CEDF80E0CCDFC8E080E4C9DF80E0C7DF49
S1130140C150D1F784E980937400DF91CF911F915E
S11301500F910895ADDF80EEC5CF089518161906E6
S11301606CF420E030E0E9EFF0E03197F1F700C003
S113017000002F5F3F4F82179307A9F70895EADF26
S113018084EF91E0EBDF40E060E081E390DFFFCFBC
S1070190F894FFCF0D
S9030000FC
