S00C0000377365672E73726563A2
S113000045C0000060C000005EC000005CC000008D
S11300105AC0000058C0000056C0000054C0000080
S113002052C0000050C000004EC000004CC0000090
S11300304AC0000048C0000046C0000044C00000A0
S113004042C0000040C000003EC000003CC00000B0
S11300503AC0000038C0000036C0000034C00000C0
S113006032C0000030C000002EC000002CC00000D0
S11300702AC0000028C0000026C0000024C00000E0
S113008022C0000020C000001EC0000011241FBEBA
S1130090CFEFD0E1DEBFCDBF11E0A0E0B1E0EAE8F0
S11300A0F2E000E00BBF02C007900D92AA30B10746
S11300B0D9F721E0AAE0B1E001C01D92AE30B20749
S11300C0E1F702D0E0C09CCFB2D0CAE0D1E0809189
S11300D00A0190910B01A0910C01B0910D010196C0
S11300E0A11DB11D80930A0190930B01A0930C01F3
S11300F0B0930D0184E690E004D0888199816DD09D
S1130100E6CF181619065CF420E030E042E04A9588
S1130110F1F700C02F5F3F4F82179307B9F7089597
S11301201F93CF93DF93182FC8E0D0E0C19882E3E8
S113013090E0E7DF10FF02C0C09A01C0C098C19AE6
S113014082E390E0DEDF1695219781F7C198B89895
S1130150C09A82E390E0D5DF86B3B89AC09882E370
S113016090E0CFDFC19A82E390E0CBDFC198889A18
S1130170DF91CF911F910895C09AC19A82E390E0D4
S1130180C0DFC0980895C19882E390E0BADFC098B8
S113019082E390E0B6DFC19A82E390E0B2DFC09AD6
S11301A00895CF93C82FE8DF8C2FBADFECDFCF910F
S11301B008958BE8F6CF0895CF93DF93D82FC62FF9
S11301C084E4EFDFD9DF8D2F806CAADF8C2FA8DFCA
S11301D0DADFEFDFDF91CF910895FF920F931F9342
S11301E0CF93DF93C3E00AE010E0B80125D0F62EE8
S11301F0D72FFC01FF27E050FF4F60818C2FDCDFFD
S11302008F2D9D2FC15088F7DF91CF911F910F91B2
S1130210FF90089560E080E0CFDF60E081E0CCDF14
S113022060E082E0C9DF60E083E0C6CF089583E048
S113023087BB18BAEFCF089597FB072E16F40094E6
S113024006D077FD08D00BD007FC05D03EF490957E
S113025081959F4F0895709561957F4F0895AA1BCE
S1130260BB1B51E107C0AA1FBB1FA617B70710F09D
S1130270A61BB70B881F991F5A95A9F780959095CF
S10D0280BC01CD010895F894FFCFEE
S10D028A3F065B4F666D7D077F6F32
S9030000FC
